{
  "contractName": "Dice",
  "abi": [
    {
      "constant": false,
      "inputs": [],
      "name": "divest",
      "outputs": [],
      "payable": false,
      "stateMutability": "nonpayable",
      "type": "function"
    },
    {
      "constant": true,
      "inputs": [
        {
          "name": "id",
          "type": "uint256"
        }
      ],
      "name": "getBet",
      "outputs": [
        {
          "name": "",
          "type": "address"
        },
        {
          "name": "",
          "type": "uint256"
        },
        {
          "name": "",
          "type": "uint256"
        }
      ],
      "payable": false,
      "stateMutability": "view",
      "type": "function"
    },
    {
      "constant": true,
      "inputs": [],
      "name": "getBankroll",
      "outputs": [
        {
          "name": "",
          "type": "uint256"
        }
      ],
      "payable": false,
      "stateMutability": "view",
      "type": "function"
    },
    {
      "constant": false,
      "inputs": [],
      "name": "bet",
      "outputs": [],
      "payable": false,
      "stateMutability": "nonpayable",
      "type": "function"
    },
    {
      "constant": true,
      "inputs": [
        {
          "name": "currentInvestor",
          "type": "address"
        }
      ],
      "name": "getProfitShare",
      "outputs": [
        {
          "name": "",
          "type": "uint256"
        }
      ],
      "payable": false,
      "stateMutability": "view",
      "type": "function"
    },
    {
      "constant": false,
      "inputs": [],
      "name": "stopContract",
      "outputs": [],
      "payable": false,
      "stateMutability": "nonpayable",
      "type": "function"
    },
    {
      "constant": true,
      "inputs": [],
      "name": "numInvestors",
      "outputs": [
        {
          "name": "",
          "type": "uint256"
        }
      ],
      "payable": false,
      "stateMutability": "view",
      "type": "function"
    },
    {
      "constant": true,
      "inputs": [],
      "name": "maxWin",
      "outputs": [
        {
          "name": "",
          "type": "uint256"
        }
      ],
      "payable": false,
      "stateMutability": "view",
      "type": "function"
    },
    {
      "constant": true,
      "inputs": [],
      "name": "emergencyWithdrawalRatio",
      "outputs": [
        {
          "name": "",
          "type": "uint256"
        }
      ],
      "payable": false,
      "stateMutability": "view",
      "type": "function"
    },
    {
      "constant": false,
      "inputs": [
        {
          "name": "vote",
          "type": "bool"
        }
      ],
      "name": "voteEmergencyWithdrawal",
      "outputs": [],
      "payable": false,
      "stateMutability": "nonpayable",
      "type": "function"
    },
    {
      "constant": false,
      "inputs": [
        {
          "name": "newHouse",
          "type": "address"
        }
      ],
      "name": "changeHouseAddress",
      "outputs": [],
      "payable": false,
      "stateMutability": "nonpayable",
      "type": "function"
    },
    {
      "constant": false,
      "inputs": [],
      "name": "forceDivestOfAllInvestors",
      "outputs": [],
      "payable": false,
      "stateMutability": "nonpayable",
      "type": "function"
    },
    {
      "constant": false,
      "inputs": [
        {
          "name": "myid",
          "type": "bytes32"
        },
        {
          "name": "result",
          "type": "string"
        }
      ],
      "name": "__callback",
      "outputs": [],
      "payable": false,
      "stateMutability": "nonpayable",
      "type": "function"
    },
    {
      "constant": true,
      "inputs": [],
      "name": "investorsLoses",
      "outputs": [
        {
          "name": "",
          "type": "uint256"
        }
      ],
      "payable": false,
      "stateMutability": "view",
      "type": "function"
    },
    {
      "constant": false,
      "inputs": [
        {
          "name": "myid",
          "type": "bytes32"
        },
        {
          "name": "result",
          "type": "string"
        },
        {
          "name": "proof",
          "type": "bytes"
        }
      ],
      "name": "__callback",
      "outputs": [],
      "payable": false,
      "stateMutability": "nonpayable",
      "type": "function"
    },
    {
      "constant": true,
      "inputs": [],
      "name": "isStopped",
      "outputs": [
        {
          "name": "",
          "type": "bool"
        }
      ],
      "payable": false,
      "stateMutability": "view",
      "type": "function"
    },
    {
      "constant": true,
      "inputs": [
        {
          "name": "",
          "type": "uint256"
        }
      ],
      "name": "investors",
      "outputs": [
        {
          "name": "investorAddress",
          "type": "address"
        },
        {
          "name": "amountInvested",
          "type": "uint256"
        },
        {
          "name": "votedForEmergencyWithdrawal",
          "type": "bool"
        }
      ],
      "payable": false,
      "stateMutability": "view",
      "type": "function"
    },
    {
      "constant": true,
      "inputs": [],
      "name": "searchSmallestInvestor",
      "outputs": [
        {
          "name": "",
          "type": "uint256"
        }
      ],
      "payable": false,
      "stateMutability": "view",
      "type": "function"
    },
    {
      "constant": false,
      "inputs": [
        {
          "name": "withdrawalAddress",
          "type": "address"
        }
      ],
      "name": "proposeEmergencyWithdrawal",
      "outputs": [],
      "payable": false,
      "stateMutability": "nonpayable",
      "type": "function"
    },
    {
      "constant": true,
      "inputs": [],
      "name": "divestFee",
      "outputs": [
        {
          "name": "",
          "type": "uint256"
        }
      ],
      "payable": false,
      "stateMutability": "view",
      "type": "function"
    },
    {
      "constant": true,
      "inputs": [],
      "name": "getStatus",
      "outputs": [
        {
          "name": "",
          "type": "uint256"
        },
        {
          "name": "",
          "type": "uint256"
        },
        {
          "name": "",
          "type": "uint256"
        },
        {
          "name": "",
          "type": "uint256"
        },
        {
          "name": "",
          "type": "uint256"
        },
        {
          "name": "",
          "type": "uint256"
        },
        {
          "name": "",
          "type": "uint256"
        },
        {
          "name": "",
          "type": "uint256"
        },
        {
          "name": "",
          "type": "uint256"
        }
      ],
      "payable": false,
      "stateMutability": "view",
      "type": "function"
    },
    {
      "constant": false,
      "inputs": [
        {
          "name": "currentInvestor",
          "type": "address"
        }
      ],
      "name": "forceDivestOfOneInvestor",
      "outputs": [],
      "payable": false,
      "stateMutability": "nonpayable",
      "type": "function"
    },
    {
      "constant": true,
      "inputs": [],
      "name": "proposedWithdrawal",
      "outputs": [
        {
          "name": "toAddress",
          "type": "address"
        },
        {
          "name": "atTime",
          "type": "uint256"
        }
      ],
      "payable": false,
      "stateMutability": "view",
      "type": "function"
    },
    {
      "constant": true,
      "inputs": [],
      "name": "getMaxBetAmount",
      "outputs": [
        {
          "name": "",
          "type": "uint256"
        }
      ],
      "payable": false,
      "stateMutability": "view",
      "type": "function"
    },
    {
      "constant": true,
      "inputs": [],
      "name": "investorsProfit",
      "outputs": [
        {
          "name": "",
          "type": "uint256"
        }
      ],
      "payable": false,
      "stateMutability": "view",
      "type": "function"
    },
    {
      "constant": true,
      "inputs": [
        {
          "name": "",
          "type": "address"
        }
      ],
      "name": "investorIDs",
      "outputs": [
        {
          "name": "",
          "type": "uint256"
        }
      ],
      "payable": false,
      "stateMutability": "view",
      "type": "function"
    },
    {
      "constant": true,
      "inputs": [],
      "name": "getMinInvestment",
      "outputs": [
        {
          "name": "",
          "type": "uint256"
        }
      ],
      "payable": false,
      "stateMutability": "view",
      "type": "function"
    },
    {
      "constant": true,
      "inputs": [],
      "name": "getMinBetAmount",
      "outputs": [
        {
          "name": "",
          "type": "uint256"
        }
      ],
      "payable": false,
      "stateMutability": "view",
      "type": "function"
    },
    {
      "constant": false,
      "inputs": [
        {
          "name": "newOwner",
          "type": "address"
        }
      ],
      "name": "changeOwnerAddress",
      "outputs": [],
      "payable": false,
      "stateMutability": "nonpayable",
      "type": "function"
    },
    {
      "constant": true,
      "inputs": [],
      "name": "minBet",
      "outputs": [
        {
          "name": "",
          "type": "uint256"
        }
      ],
      "payable": false,
      "stateMutability": "view",
      "type": "function"
    },
    {
      "constant": false,
      "inputs": [],
      "name": "increaseInvestment",
      "outputs": [],
      "payable": false,
      "stateMutability": "nonpayable",
      "type": "function"
    },
    {
      "constant": true,
      "inputs": [],
      "name": "pwin",
      "outputs": [
        {
          "name": "",
          "type": "uint256"
        }
      ],
      "payable": false,
      "stateMutability": "view",
      "type": "function"
    },
    {
      "constant": true,
      "inputs": [],
      "name": "edge",
      "outputs": [
        {
          "name": "",
          "type": "uint256"
        }
      ],
      "payable": false,
      "stateMutability": "view",
      "type": "function"
    },
    {
      "constant": true,
      "inputs": [],
      "name": "maxInvestors",
      "outputs": [
        {
          "name": "",
          "type": "uint256"
        }
      ],
      "payable": false,
      "stateMutability": "view",
      "type": "function"
    },
    {
      "constant": false,
      "inputs": [],
      "name": "resumeContract",
      "outputs": [],
      "payable": false,
      "stateMutability": "nonpayable",
      "type": "function"
    },
    {
      "constant": true,
      "inputs": [],
      "name": "invested",
      "outputs": [
        {
          "name": "",
          "type": "uint256"
        }
      ],
      "payable": false,
      "stateMutability": "view",
      "type": "function"
    },
    {
      "constant": false,
      "inputs": [
        {
          "name": "newGasLimit",
          "type": "uint256"
        }
      ],
      "name": "changeGasLimitOfSafeSend",
      "outputs": [],
      "payable": false,
      "stateMutability": "nonpayable",
      "type": "function"
    },
    {
      "constant": true,
      "inputs": [],
      "name": "amountWagered",
      "outputs": [
        {
          "name": "",
          "type": "uint256"
        }
      ],
      "payable": false,
      "stateMutability": "view",
      "type": "function"
    },
    {
      "constant": true,
      "inputs": [],
      "name": "houseEdge",
      "outputs": [
        {
          "name": "",
          "type": "uint256"
        }
      ],
      "payable": false,
      "stateMutability": "view",
      "type": "function"
    },
    {
      "constant": true,
      "inputs": [],
      "name": "numBets",
      "outputs": [
        {
          "name": "",
          "type": "uint256"
        }
      ],
      "payable": false,
      "stateMutability": "view",
      "type": "function"
    },
    {
      "constant": true,
      "inputs": [
        {
          "name": "currentInvestor",
          "type": "address"
        }
      ],
      "name": "getLosesShare",
      "outputs": [
        {
          "name": "",
          "type": "uint256"
        }
      ],
      "payable": false,
      "stateMutability": "view",
      "type": "function"
    },
    {
      "constant": false,
      "inputs": [],
      "name": "executeEmergencyWithdrawal",
      "outputs": [],
      "payable": false,
      "stateMutability": "nonpayable",
      "type": "function"
    },
    {
      "constant": true,
      "inputs": [
        {
          "name": "currentInvestor",
          "type": "address"
        }
      ],
      "name": "getBalance",
      "outputs": [
        {
          "name": "",
          "type": "uint256"
        }
      ],
      "payable": false,
      "stateMutability": "view",
      "type": "function"
    },
    {
      "constant": false,
      "inputs": [],
      "name": "newInvestor",
      "outputs": [],
      "payable": true,
      "stateMutability": "payable",
      "type": "function"
    },
    {
      "inputs": [
        {
          "name": "pwinInitial",
          "type": "uint256"
        },
        {
          "name": "edgeInitial",
          "type": "uint256"
        },
        {
          "name": "maxWinInitial",
          "type": "uint256"
        },
        {
          "name": "minBetInitial",
          "type": "uint256"
        },
        {
          "name": "maxInvestorsInitial",
          "type": "uint256"
        },
        {
          "name": "houseEdgeInitial",
          "type": "uint256"
        },
        {
          "name": "divestFeeInitial",
          "type": "uint256"
        },
        {
          "name": "emergencyWithdrawalRatioInitial",
          "type": "uint256"
        }
      ],
      "payable": false,
      "stateMutability": "nonpayable",
      "type": "constructor"
    },
    {
      "payable": false,
      "stateMutability": "nonpayable",
      "type": "fallback"
    },
    {
      "anonymous": false,
      "inputs": [
        {
          "indexed": false,
          "name": "playerAddress",
          "type": "address"
        },
        {
          "indexed": false,
          "name": "numberRolled",
          "type": "uint256"
        },
        {
          "indexed": false,
          "name": "amountWon",
          "type": "uint256"
        }
      ],
      "name": "BetWon",
      "type": "event"
    },
    {
      "anonymous": false,
      "inputs": [
        {
          "indexed": false,
          "name": "playerAddress",
          "type": "address"
        },
        {
          "indexed": false,
          "name": "numberRolled",
          "type": "uint256"
        }
      ],
      "name": "BetLost",
      "type": "event"
    },
    {
      "anonymous": false,
      "inputs": [],
      "name": "EmergencyWithdrawalProposed",
      "type": "event"
    },
    {
      "anonymous": false,
      "inputs": [
        {
          "indexed": false,
          "name": "withdrawalAddress",
          "type": "address"
        }
      ],
      "name": "EmergencyWithdrawalFailed",
      "type": "event"
    },
    {
      "anonymous": false,
      "inputs": [
        {
          "indexed": false,
          "name": "withdrawalAddress",
          "type": "address"
        },
        {
          "indexed": false,
          "name": "amountWithdrawn",
          "type": "uint256"
        }
      ],
      "name": "EmergencyWithdrawalSucceeded",
      "type": "event"
    },
    {
      "anonymous": false,
      "inputs": [
        {
          "indexed": false,
          "name": "receiver",
          "type": "address"
        },
        {
          "indexed": false,
          "name": "amount",
          "type": "uint256"
        }
      ],
      "name": "FailedSend",
      "type": "event"
    },
    {
      "anonymous": false,
      "inputs": [],
      "name": "ValueIsTooBig",
      "type": "event"
    }
  ],
  "bytecode": "0x606060405261138860055560c8600655606460075566038d7ea4c6800060085560056009556032600a556032600b55605a600c556161a8600d5560006010556000601155600060185560006019556000601a5534156200005e57600080fd5b60405161010080620052df83398101604052808051906020019091908051906020019091908051906020019091908051906020019091908051906020019091908051906020019091908051906020019091908051906020019091905050736f485c8bf6fc43ea212e93bbf8ce046c7f1cb4756000806101000a81548173ffffffffffffffffffffffffffffffffffffffff021916908373ffffffffffffffffffffffffffffffffffffffff1602179055506200017660017f01000000000000000000000000000000000000000000000000000000000000000260107f010000000000000000000000000000000000000000000000000000000000000002176200023e64010000000002620041f9176401000000009004565b876005819055508660068190555085600781905550846008819055508360098190555082600a8190555081600b8190555080600c8190555033601260006101000a81548173ffffffffffffffffffffffffffffffffffffffff021916908373ffffffffffffffffffffffffffffffffffffffff16021790555033601360006101000a81548173ffffffffffffffffffffffffffffffffffffffff021916908373ffffffffffffffffffffffffffffffffffffffff160217905550505050505050505062000c2c565b60008060009054906101000a900473ffffffffffffffffffffffffffffffffffffffff1673ffffffffffffffffffffffffffffffffffffffff161480620002c457506000620002c26000809054906101000a900473ffffffffffffffffffffffffffffffffffffffff16620005c5640100000000026200393f176401000000009004565b145b15620002ec57620002ea6000620005d0640100000000026200394a176401000000009004565b505b6000809054906101000a900473ffffffffffffffffffffffffffffffffffffffff1673ffffffffffffffffffffffffffffffffffffffff166338cc48316000604051602001526040518163ffffffff167c0100000000000000000000000000000000000000000000000000000000028152600401602060405180830381600087803b15156200037a57600080fd5b6102c65a03f115156200038c57600080fd5b5050506040518051905073ffffffffffffffffffffffffffffffffffffffff16600160009054906101000a900473ffffffffffffffffffffffffffffffffffffffff1673ffffffffffffffffffffffffffffffffffffffff16141515620004d8576000809054906101000a900473ffffffffffffffffffffffffffffffffffffffff1673ffffffffffffffffffffffffffffffffffffffff166338cc48316000604051602001526040518163ffffffff167c0100000000000000000000000000000000000000000000000000000000028152600401602060405180830381600087803b15156200047b57600080fd5b6102c65a03f115156200048d57600080fd5b50505060405180519050600160006101000a81548173ffffffffffffffffffffffffffffffffffffffff021916908373ffffffffffffffffffffffffffffffffffffffff1602179055505b600160009054906101000a900473ffffffffffffffffffffffffffffffffffffffff1673ffffffffffffffffffffffffffffffffffffffff1663688dcfd7826040518263ffffffff167c010000000000000000000000000000000000000000000000000000000002815260040180827effffffffffffffffffffffffffffffffffffffffffffffffffffffffffffff19167effffffffffffffffffffffffffffffffffffffffffffffffffffffffffffff19168152602001915050600060405180830381600087803b1515620005ad57600080fd5b6102c65a03f11515620005bf57600080fd5b50505050565b6000813b9050919050565b60008062000606731d3b2638a7cc9f2cb3d298a3da7a90b67e5506ed620005c5640100000000026200393f176401000000009004565b1115620006bf57731d3b2638a7cc9f2cb3d298a3da7a90b67e5506ed6000806101000a81548173ffffffffffffffffffffffffffffffffffffffff021916908373ffffffffffffffffffffffffffffffffffffffff160217905550620006b56040805190810160405280600b81526020017f6574685f6d61696e6e657400000000000000000000000000000000000000000081525062000b6164010000000002620040d5176401000000009004565b6001905062000b5c565b6000620006f473c03a2615d5efaf5f49f60b7bb6583eaec212fdf1620005c5640100000000026200393f176401000000009004565b1115620007ad5773c03a2615d5efaf5f49f60b7bb6583eaec212fdf16000806101000a81548173ffffffffffffffffffffffffffffffffffffffff021916908373ffffffffffffffffffffffffffffffffffffffff160217905550620007a36040805190810160405280600c81526020017f6574685f726f707374656e33000000000000000000000000000000000000000081525062000b6164010000000002620040d5176401000000009004565b6001905062000b5c565b6000620007e273b7a07bcf2ba2f2703b24c0691b5278999c59ac7e620005c5640100000000026200393f176401000000009004565b11156200089b5773b7a07bcf2ba2f2703b24c0691b5278999c59ac7e6000806101000a81548173ffffffffffffffffffffffffffffffffffffffff021916908373ffffffffffffffffffffffffffffffffffffffff160217905550620008916040805190810160405280600981526020017f6574685f6b6f76616e000000000000000000000000000000000000000000000081525062000b6164010000000002620040d5176401000000009004565b6001905062000b5c565b6000620008d073146500cfd35b22e4a392fe0adc06de1a1368ed48620005c5640100000000026200393f176401000000009004565b1115620009895773146500cfd35b22e4a392fe0adc06de1a1368ed486000806101000a81548173ffffffffffffffffffffffffffffffffffffffff021916908373ffffffffffffffffffffffffffffffffffffffff1602179055506200097f6040805190810160405280600b81526020017f6574685f72696e6b65627900000000000000000000000000000000000000000081525062000b6164010000000002620040d5176401000000009004565b6001905062000b5c565b6000620009be736f485c8bf6fc43ea212e93bbf8ce046c7f1cb475620005c5640100000000026200393f176401000000009004565b111562000a2357736f485c8bf6fc43ea212e93bbf8ce046c7f1cb4756000806101000a81548173ffffffffffffffffffffffffffffffffffffffff021916908373ffffffffffffffffffffffffffffffffffffffff1602179055506001905062000b5c565b600062000a587320e12a1f859b3feae5fb2a0a32c18f5a65555bbf620005c5640100000000026200393f176401000000009004565b111562000abd577320e12a1f859b3feae5fb2a0a32c18f5a65555bbf6000806101000a81548173ffffffffffffffffffffffffffffffffffffffff021916908373ffffffffffffffffffffffffffffffffffffffff1602179055506001905062000b5c565b600062000af27351efaf4c8b3c9afbd5ab9f4bbc82784ab6ef8faa620005c5640100000000026200393f176401000000009004565b111562000b57577351efaf4c8b3c9afbd5ab9f4bbc82784ab6ef8faa6000806101000a81548173ffffffffffffffffffffffffffffffffffffffff021916908373ffffffffffffffffffffffffffffffffffffffff1602179055506001905062000b5c565b600090505b919050565b806002908051906020019062000b7992919062000b7d565b5050565b828054600181600116156101000203166002900490600052602060002090601f016020900481019282601f1062000bc057805160ff191683800117855562000bf1565b8280016001018555821562000bf1579182015b8281111562000bf057825182559160200191906001019062000bd3565b5b50905062000c00919062000c04565b5090565b62000c2991905b8082111562000c2557600081600090555060010162000c0b565b5090565b90565b6146a38062000c3c6000396000f30060606040526004361061021a576000357c0100000000000000000000000000000000000000000000000000000000900463ffffffff168063058aace11461022f578063061e494f146102445780630d1fce42146102b557806311610c25146102de578063116c6eab146102f357806312253a6c14610340578063132ae5e91461035557806316d190e31461037e57806317c5fed8146103a7578063187a62d5146103d05780631efb17ee146103f5578063232523e81461042e57806327dc297e14610443578063333e1a72146104ad57806338bbfa50146104d65780633f683b6a146105835780633feb5f2b146105b057806340a49a96146106255780634671e65e1461064e5780634dc6b523146106875780634e69d560146106b057806351404cbe14610711578063518496b21461074a578063550ed1f0146107a657806366aee0fc146107cf5780636be80de7146107f8578063724ae9d01461084557806382a5285d1461086e57806385eac05f146108975780639619367d146108d0578063a4beffa7146108f9578063a96a5a5b1461090e578063adc2c98a14610937578063bc99cc3714610960578063c4bc5da514610989578063cafb22021461099e578063d21d7950146109c7578063d4c80edf146109ea578063d667dcd714610a13578063df06f90614610a3c578063e0e3ba5a14610a65578063f4993bbd14610ab2578063f8b2cb4f14610ac7578063fb099c8414610b14575b341561022557600080fd5b61022d610b1e565b005b341561023a57600080fd5b610242610ee5565b005b341561024f57600080fd5b6102656004808035906020019091905050610f4c565b604051808473ffffffffffffffffffffffffffffffffffffffff1673ffffffffffffffffffffffffffffffffffffffff168152602001838152602001828152602001935050505060405180910390f35b34156102c057600080fd5b6102c861100d565b6040518082815260200191505060405180910390f35b34156102e957600080fd5b6102f1610b1e565b005b34156102fe57600080fd5b61032a600480803573ffffffffffffffffffffffffffffffffffffffff1690602001909190505061101f565b6040518082815260200191505060405180910390f35b341561034b57600080fd5b61035361108f565b005b341561036057600080fd5b610368611117565b6040518082815260200191505060405180910390f35b341561038957600080fd5b61039161111d565b6040518082815260200191505060405180910390f35b34156103b257600080fd5b6103ba611123565b6040518082815260200191505060405180910390f35b34156103db57600080fd5b6103f360048080351515906020019091905050611129565b005b341561040057600080fd5b61042c600480803573ffffffffffffffffffffffffffffffffffffffff16906020019091905050611259565b005b341561043957600080fd5b610441611308565b005b341561044e57600080fd5b6104ab60048080356000191690602001909190803590602001908201803590602001908080601f016020809104026020016040519081016040528093929190818152602001838380828437820191505050505050919050506113da565b005b34156104b857600080fd5b6104c061140c565b6040518082815260200191505060405180910390f35b34156104e157600080fd5b61058160048080356000191690602001909190803590602001908201803590602001908080601f0160208091040260200160405190810160405280939291908181526020018383808284378201915050505050509190803590602001908201803590602001908080601f01602080910402602001604051908101604052809392919081815260200183838082843782019150505050505091905050611412565b005b341561058e57600080fd5b610596611779565b604051808215151515815260200191505060405180910390f35b34156105bb57600080fd5b6105d1600480803590602001909190505061178c565b604051808473ffffffffffffffffffffffffffffffffffffffff1673ffffffffffffffffffffffffffffffffffffffff16815260200183815260200182151515158152602001935050505060405180910390f35b341561063057600080fd5b6106386117e3565b6040518082815260200191505060405180910390f35b341561065957600080fd5b610685600480803573ffffffffffffffffffffffffffffffffffffffff16906020019091905050611899565b005b341561069257600080fd5b61069a611a15565b6040518082815260200191505060405180910390f35b34156106bb57600080fd5b6106c3611a1b565b604051808a8152602001898152602001888152602001878152602001868152602001858152602001848152602001838152602001828152602001995050505050505050505060405180910390f35b341561071c57600080fd5b610748600480803573ffffffffffffffffffffffffffffffffffffffff16906020019091905050611a7d565b005b341561075557600080fd5b61075d611b43565b604051808373ffffffffffffffffffffffffffffffffffffffff1673ffffffffffffffffffffffffffffffffffffffff1681526020018281526020019250505060405180910390f35b34156107b157600080fd5b6107b9611b75565b6040518082815260200191505060405180910390f35b34156107da57600080fd5b6107e2611d2a565b6040518082815260200191505060405180910390f35b341561080357600080fd5b61082f600480803573ffffffffffffffffffffffffffffffffffffffff16906020019091905050611d30565b6040518082815260200191505060405180910390f35b341561085057600080fd5b610858611d48565b6040518082815260200191505060405180910390f35b341561087957600080fd5b610881611db0565b6040518082815260200191505060405180910390f35b34156108a257600080fd5b6108ce600480803573ffffffffffffffffffffffffffffffffffffffff16906020019091905050611f39565b005b34156108db57600080fd5b6108e3611fe8565b6040518082815260200191505060405180910390f35b341561090457600080fd5b61090c611fee565b005b341561091957600080fd5b6109216120e0565b6040518082815260200191505060405180910390f35b341561094257600080fd5b61094a6120e6565b6040518082815260200191505060405180910390f35b341561096b57600080fd5b6109736120ec565b6040518082815260200191505060405180910390f35b341561099457600080fd5b61099c6120f2565b005b34156109a957600080fd5b6109b161217a565b6040518082815260200191505060405180910390f35b34156109d257600080fd5b6109e86004808035906020019091905050612180565b005b34156109f557600080fd5b6109fd612206565b6040518082815260200191505060405180910390f35b3415610a1e57600080fd5b610a2661220c565b6040518082815260200191505060405180910390f35b3415610a4757600080fd5b610a4f612212565b6040518082815260200191505060405180910390f35b3415610a7057600080fd5b610a9c600480803573ffffffffffffffffffffffffffffffffffffffff1690602001909190505061221f565b6040518082815260200191505060405180910390f35b3415610abd57600080fd5b610ac561228f565b005b3415610ad257600080fd5b610afe600480803573ffffffffffffffffffffffffffffffffffffffff169060200190919050506125cf565b6040518082815260200191505060405180910390f35b610b1c612642565b005b6000806000601360149054906101000a900460ff1615610b3d57600080fd5b6000341415610b4b57600080fd5b6000809054906101000a900473ffffffffffffffffffffffffffffffffffffffff1673ffffffffffffffffffffffffffffffffffffffff166338cc48316000604051602001526040518163ffffffff167c0100000000000000000000000000000000000000000000000000000000028152600401602060405180830381600087803b1515610bd857600080fd5b6102c65a03f11515610be957600080fd5b5050506040518051905073ffffffffffffffffffffffffffffffffffffffff16632ef3accc600d546201e848016000604051602001526040518263ffffffff167c01000000000000000000000000000000000000000000000000000000000281526004018080602001838152602001828103825260038152602001807f55524c000000000000000000000000000000000000000000000000000000000081525060200192505050602060405180830381600087803b1515610ca957600080fd5b6102c65a03f11515610cba57600080fd5b5050506040518051905092508234039150612710610cd661100d565b60075402811515610ce357fe5b0460055460055460065461271003038402811515610cfd57fe5b0411158015610d0e57506008548210155b15610edb57610df96040805190810160405280600381526020017f55524c0000000000000000000000000000000000000000000000000000000000815250608060405190810160405280604381526020017f6a736f6e2868747470733a2f2f6170692e72616e646f6d2e6f72672f6a736f6e81526020017f2d7270632f312f696e766f6b65292e726573756c742e72616e646f6d2e64617481526020017f612e3000000000000000000000000000000000000000000000000000000000008152506101606040519081016040528061012c815260200161454c61012c9139600d546201e8480161274d565b90506060604051908101604052803373ffffffffffffffffffffffffffffffffffffffff168152602001838152602001600081525060166000836000191660001916815260200190815260200160002060008201518160000160006101000a81548173ffffffffffffffffffffffffffffffffffffffff021916908373ffffffffffffffffffffffffffffffffffffffff160217905550602082015181600101556040820151816002015590505060178054806001018281610ebb91906140ef565b916000526020600020900160008390919091509060001916905550610ee0565b600080fd5b505050565b6000600e60003373ffffffffffffffffffffffffffffffffffffffff1673ffffffffffffffffffffffffffffffffffffffff168152602001908152602001600020541415610f3257600080fd5b600034141515610f4157600080fd5b610f4a33612d0b565b565b60008060008060178054905085101561100457601785815481101515610f6e57fe5b906000526020600020900154905060166000826000191660001916815260200190815260200160002060000160009054906101000a900473ffffffffffffffffffffffffffffffffffffffff166016600083600019166000191681526020019081526020016000206001015460166000846000191660001916815260200190815260200160002060020154935093509350611005565b5b509193909250565b6000601a546019546011540103905090565b6000601154601954600f6000600e60008773ffffffffffffffffffffffffffffffffffffffff1673ffffffffffffffffffffffffffffffffffffffff168152602001908152602001600020548152602001908152602001600020600101540281151561108757fe5b049050919050565b3373ffffffffffffffffffffffffffffffffffffffff16601260009054906101000a900473ffffffffffffffffffffffffffffffffffffffff1673ffffffffffffffffffffffffffffffffffffffff161415156110eb57600080fd5b6000341415156110fa57600080fd5b6001601360146101000a81548160ff021916908315150217905550565b60105481565b60075481565b600c5481565b6000600e60003373ffffffffffffffffffffffffffffffffffffffff1673ffffffffffffffffffffffffffffffffffffffff16815260200190815260200160002054141561117657600080fd5b6000601460000160009054906101000a900473ffffffffffffffffffffffffffffffffffffffff1673ffffffffffffffffffffffffffffffffffffffff1614156111bf57600080fd5b601360149054906101000a900460ff1615156111da57600080fd5b6000341415156111e957600080fd5b80600f6000600e60003373ffffffffffffffffffffffffffffffffffffffff1673ffffffffffffffffffffffffffffffffffffffff16815260200190815260200160002054815260200190815260200160002060020160006101000a81548160ff02191690831515021790555050565b3373ffffffffffffffffffffffffffffffffffffffff16601260009054906101000a900473ffffffffffffffffffffffffffffffffffffffff1673ffffffffffffffffffffffffffffffffffffffff161415156112b557600080fd5b6000341415156112c457600080fd5b80601360006101000a81548173ffffffffffffffffffffffffffffffffffffffff021916908373ffffffffffffffffffffffffffffffffffffffff16021790555050565b6000803373ffffffffffffffffffffffffffffffffffffffff16601260009054906101000a900473ffffffffffffffffffffffffffffffffffffffff1673ffffffffffffffffffffffffffffffffffffffff1614151561136757600080fd5b60003414151561137657600080fd5b6010549150600190505b81811115156113d6576113c9600f60006001815260200190815260200160002060000160009054906101000a900473ffffffffffffffffffffffffffffffffffffffff16612d0b565b8080600101915050611380565b5050565b611408828260006040518059106113ee5750595b9080825280601f01601f1916602001820160405250611412565b5050565b601a5481565b60008061141d613041565b73ffffffffffffffffffffffffffffffffffffffff163373ffffffffffffffffffffffffffffffffffffffff1614151561145657600080fd5b846000601660008360001916600019168152602001908152602001600020905060008160020154111561148857600080fd5b868660008060166000856000191660001916815260200190815260200160002091506114b383613357565b905060018110806114c5575061271081115b80156114d5575060008260020154145b15611537576201869f601660008660001916600019168152602001908152602001600020600201819055506115328260000160009054906101000a900473ffffffffffffffffffffffffffffffffffffffff16836001015461336b565b61176c565b8a6000601660008360001916600019168152602001908152602001600020905061271061156261100d565b6007540281151561156f57fe5b04600554600554600654612710030383600101540281151561158d57fe5b0411151561170b57601660008e6000191660001916815260200190815260200160002099506115bb8c613357565b985088601660008f60001916600019168152602001908152602001600020600201819055506116608a606060405190810160405290816000820160009054906101000a900473ffffffffffffffffffffffffffffffffffffffff1673ffffffffffffffffffffffffffffffffffffffff1673ffffffffffffffffffffffffffffffffffffffff168152602001600182015481526020016002820154815250508a6135a0565b6116e08a606060405190810160405290816000820160009054906101000a900473ffffffffffffffffffffffffffffffffffffffff1673ffffffffffffffffffffffffffffffffffffffff1673ffffffffffffffffffffffffffffffffffffffff168152602001600182015481526020016002820154815250508a61366e565b8960010154601860008282540192505081905550601b60006101000a81549060ff0219169055611768565b6201869f601660008460001916600019168152602001908152602001600020600201819055506117638160000160009054906101000a900473ffffffffffffffffffffffffffffffffffffffff16826001015461336b565b611769565b5b50505b5050505050505050505050565b601360149054906101000a900460ff1681565b600f6020528060005260406000206000915090508060000160009054906101000a900473ffffffffffffffffffffffffffffffffffffffff16908060010154908060020160009054906101000a900460ff16905083565b600080600060019150600190505b601054811115156118915761183b600f600084815260200190815260200160002060000160009054906101000a900473ffffffffffffffffffffffffffffffffffffffff166125cf565b61187a600f600084815260200190815260200160002060000160009054906101000a900473ffffffffffffffffffffffffffffffffffffffff166125cf565b1015611884578091505b80806001019150506117f1565b819250505090565b6000601360149054906101000a900460ff1615156118b657600080fd5b3373ffffffffffffffffffffffffffffffffffffffff16601260009054906101000a900473ffffffffffffffffffffffffffffffffffffffff1673ffffffffffffffffffffffffffffffffffffffff1614151561191257600080fd5b60003414151561192157600080fd5b600190505b6010548111151561196457600f600082815260200190815260200160002060020160006101000a81549060ff02191690558080600101915050611926565b60408051908101604052808373ffffffffffffffffffffffffffffffffffffffff16815260200142815250601460008201518160000160006101000a81548173ffffffffffffffffffffffffffffffffffffffff021916908373ffffffffffffffffffffffffffffffffffffffff160217905550602082015181600101559050507ffc136941d6f5a7fa31fea543bdc05be2e77ce86110b5fe83706976590c0d399560405160405180910390a15050565b600b5481565b6000806000806000806000806000806000611a3461100d565b9150611a3e611d48565b905081600554600654600754600854601854601a5460195403876017805490509a509a509a509a509a509a509a509a509a505050909192939495969798565b3373ffffffffffffffffffffffffffffffffffffffff16601260009054906101000a900473ffffffffffffffffffffffffffffffffffffffff1673ffffffffffffffffffffffffffffffffffffffff16141515611ad957600080fd5b601360149054906101000a900460ff161515611af457600080fd5b600034141515611b0357600080fd5b611b0c81612d0b565b6014600080820160006101000a81549073ffffffffffffffffffffffffffffffffffffffff02191690556001820160009055505050565b60148060000160009054906101000a900473ffffffffffffffffffffffffffffffffffffffff16908060010154905082565b60008060008060009054906101000a900473ffffffffffffffffffffffffffffffffffffffff1673ffffffffffffffffffffffffffffffffffffffff166338cc48316000604051602001526040518163ffffffff167c0100000000000000000000000000000000000000000000000000000000028152600401602060405180830381600087803b1515611c0757600080fd5b6102c65a03f11515611c1857600080fd5b5050506040518051905073ffffffffffffffffffffffffffffffffffffffff16632ef3accc600d546201e848016000604051602001526040518263ffffffff167c01000000000000000000000000000000000000000000000000000000000281526004018080602001838152602001828103825260038152602001807f55524c000000000000000000000000000000000000000000000000000000000081525060200192505050602060405180830381600087803b1515611cd857600080fd5b6102c65a03f11515611ce957600080fd5b505050604051805190509150600554600654612710030361271002600554611d0f61100d565b6007540202811515611d1d57fe5b0490508181019250505090565b60195481565b600e6020528060005260406000206000915090505481565b6000806009546010541415611da757611d5f6117e3565b9050611da0600f600083815260200190815260200160002060000160009054906101000a900473ffffffffffffffffffffffffffffffffffffffff166125cf565b9150611dac565b600091505b5090565b6000806000809054906101000a900473ffffffffffffffffffffffffffffffffffffffff1673ffffffffffffffffffffffffffffffffffffffff166338cc48316000604051602001526040518163ffffffff167c0100000000000000000000000000000000000000000000000000000000028152600401602060405180830381600087803b1515611e4057600080fd5b6102c65a03f11515611e5157600080fd5b5050506040518051905073ffffffffffffffffffffffffffffffffffffffff16632ef3accc600d546201e848016000604051602001526040518263ffffffff167c01000000000000000000000000000000000000000000000000000000000281526004018080602001838152602001828103825260038152602001807f55524c000000000000000000000000000000000000000000000000000000000081525060200192505050602060405180830381600087803b1515611f1157600080fd5b6102c65a03f11515611f2257600080fd5b505050604051805190509050600854810191505090565b3373ffffffffffffffffffffffffffffffffffffffff16601260009054906101000a900473ffffffffffffffffffffffffffffffffffffffff1673ffffffffffffffffffffffffffffffffffffffff16141515611f9557600080fd5b600034141515611fa457600080fd5b80601260006101000a81548173ffffffffffffffffffffffffffffffffffffffff021916908373ffffffffffffffffffffffffffffffffffffffff16021790555050565b60085481565b601360149054906101000a900460ff161561200857600080fd5b600034141561201657600080fd5b6000600e60003373ffffffffffffffffffffffffffffffffffffffff1673ffffffffffffffffffffffffffffffffffffffff16815260200190815260200160002054141561206357600080fd5b61206b613777565b34600f6000600e60003373ffffffffffffffffffffffffffffffffffffffff1673ffffffffffffffffffffffffffffffffffffffff1681526020019081526020016000205481526020019081526020016000206001016000828254019250508190555034601160008282540192505081905550565b60055481565b60065481565b60095481565b3373ffffffffffffffffffffffffffffffffffffffff16601260009054906101000a900473ffffffffffffffffffffffffffffffffffffffff1673ffffffffffffffffffffffffffffffffffffffff1614151561214e57600080fd5b60003414151561215d57600080fd5b6000601360146101000a81548160ff021916908315150217905550565b60115481565b3373ffffffffffffffffffffffffffffffffffffffff16601260009054906101000a900473ffffffffffffffffffffffffffffffffffffffff1673ffffffffffffffffffffffffffffffffffffffff161415156121dc57600080fd5b806161a88110156121ec57600080fd5b6000341415156121fb57600080fd5b81600d819055505050565b60185481565b600a5481565b6000601780549050905090565b6000601154601a54600f6000600e60008773ffffffffffffffffffffffffffffffffffffffff1673ffffffffffffffffffffffffffffffffffffffff168152602001908152602001600020548152602001908152602001600020600101540281151561228757fe5b049050919050565b60008060003373ffffffffffffffffffffffffffffffffffffffff16601260009054906101000a900473ffffffffffffffffffffffffffffffffffffffff1673ffffffffffffffffffffffffffffffffffffffff161415156122f057600080fd5b6000601460000160009054906101000a900473ffffffffffffffffffffffffffffffffffffffff1673ffffffffffffffffffffffffffffffffffffffff16141561233957600080fd5b601360149054906101000a900460ff16151561235457600080fd5b4262093a8060146001015401111561236b57600080fd5b60003414151561237a57600080fd5b3073ffffffffffffffffffffffffffffffffffffffff16319150600190505b601054811115156124105760011515600f600083815260200190815260200160002060020160009054906101000a900460ff1615151415612403578280600101935050600f600082815260200190815260200160002060020160006101000a81549060ff02191690555b8080600101915050612399565b6064601054600c540281151561242257fe5b04831015156125c557601460000160009054906101000a900473ffffffffffffffffffffffffffffffffffffffff1673ffffffffffffffffffffffffffffffffffffffff166108fc3073ffffffffffffffffffffffffffffffffffffffff16319081150290604051600060405180830381858888f19350505050151561252f577f3b66c41562b841e29923849dc45ac54e17eb64f534c62109ba2cc1e977f8ddaf601460000160009054906101000a900473ffffffffffffffffffffffffffffffffffffffff16604051808273ffffffffffffffffffffffffffffffffffffffff1673ffffffffffffffffffffffffffffffffffffffff16815260200191505060405180910390a16125c0565b7f969fa9d259520e00fd561cbd5c523032e2682528b2be25d2380088b332503814601460000160009054906101000a900473ffffffffffffffffffffffffffffffffffffffff1683604051808373ffffffffffffffffffffffffffffffffffffffff1673ffffffffffffffffffffffffffffffffffffffff1681526020018281526020019250505060405180910390a15b6125ca565b600080fd5b505050565b60006125da8261221f565b6125e38361101f565b600f6000600e60008773ffffffffffffffffffffffffffffffffffffffff1673ffffffffffffffffffffffffffffffffffffffff1681526020019081526020016000205481526020019081526020016000206001015401039050919050565b6000601360149054906101000a900460ff161561265e57600080fd5b600034141561266c57600080fd5b6000600e60003373ffffffffffffffffffffffffffffffffffffffff1673ffffffffffffffffffffffffffffffffffffffff168152602001908152602001600020541415156126ba57600080fd5b6126c2611d48565b341115156126cf57600080fd5b6126d7613777565b600954601054141561272d576126eb6117e3565b905061272c600f600083815260200190815260200160002060000160009054906101000a900473ffffffffffffffffffffffffffffffffffffffff16612d0b565b5b60106000815480929190600101919050555061274a601054613878565b50565b60008060008060009054906101000a900473ffffffffffffffffffffffffffffffffffffffff1673ffffffffffffffffffffffffffffffffffffffff1614806127bf575060006127bd6000809054906101000a900473ffffffffffffffffffffffffffffffffffffffff1661393f565b145b156127d0576127ce600061394a565b505b6000809054906101000a900473ffffffffffffffffffffffffffffffffffffffff1673ffffffffffffffffffffffffffffffffffffffff166338cc48316000604051602001526040518163ffffffff167c0100000000000000000000000000000000000000000000000000000000028152600401602060405180830381600087803b151561285d57600080fd5b6102c65a03f1151561286e57600080fd5b5050506040518051905073ffffffffffffffffffffffffffffffffffffffff16600160009054906101000a900473ffffffffffffffffffffffffffffffffffffffff1673ffffffffffffffffffffffffffffffffffffffff161415156129b7576000809054906101000a900473ffffffffffffffffffffffffffffffffffffffff1673ffffffffffffffffffffffffffffffffffffffff166338cc48316000604051602001526040518163ffffffff167c0100000000000000000000000000000000000000000000000000000000028152600401602060405180830381600087803b151561295b57600080fd5b6102c65a03f1151561296c57600080fd5b50505060405180519050600160006101000a81548173ffffffffffffffffffffffffffffffffffffffff021916908373ffffffffffffffffffffffffffffffffffffffff1602179055505b600160009054906101000a900473ffffffffffffffffffffffffffffffffffffffff1673ffffffffffffffffffffffffffffffffffffffff16632ef3accc87856000604051602001526040518363ffffffff167c01000000000000000000000000000000000000000000000000000000000281526004018080602001838152602001828103825284818151815260200191508051906020019080838360005b83811015612a71578082015181840152602081019050612a56565b50505050905090810190601f168015612a9e5780820380516001836020036101000a031916815260200191505b509350505050602060405180830381600087803b1515612abd57600080fd5b6102c65a03f11515612ace57600080fd5b505050604051805190509050823a02670de0b6b3a764000001811115612afa5760006001029150612d02565b600160009054906101000a900473ffffffffffffffffffffffffffffffffffffffff1673ffffffffffffffffffffffffffffffffffffffff166385dee34c826000898989896000604051602001526040518763ffffffff167c010000000000000000000000000000000000000000000000000000000002815260040180868152602001806020018060200180602001858152602001848103845288818151815260200191508051906020019080838360005b83811015612bc7578082015181840152602081019050612bac565b50505050905090810190601f168015612bf45780820380516001836020036101000a031916815260200191505b50848103835287818151815260200191508051906020019080838360005b83811015612c2d578082015181840152602081019050612c12565b50505050905090810190601f168015612c5a5780820380516001836020036101000a031916815260200191505b50848103825286818151815260200191508051906020019080838360005b83811015612c93578082015181840152602081019050612c78565b50505050905090810190601f168015612cc05780820380516001836020036101000a031916815260200191505b50985050505050505050506020604051808303818588803b1515612ce357600080fd5b6125ee5a03f11515612cf457600080fd5b505050506040518051905091505b50949350505050565b600080600080846000612d1d826125cf565b10151561303957612d2c613777565b600e60008773ffffffffffffffffffffffffffffffffffffffff1673ffffffffffffffffffffffffffffffffffffffff168152602001908152602001600020549450612d77866125cf565b9350600f600086815260200190815260200160002060010154601160008282540392505081905550612710600b548502811515612db057fe5b0492508284039350600f6000868152602001908152602001600020600080820160006101000a81549073ffffffffffffffffffffffffffffffffffffffff021916905560018201600090556002820160006101000a81549060ff02191690555050600e60008773ffffffffffffffffffffffffffffffffffffffff1673ffffffffffffffffffffffffffffffffffffffff1681526020019081526020016000206000905560105485141515612fef57600f60006010548152602001908152602001600020915084600e60008460000160009054906101000a900473ffffffffffffffffffffffffffffffffffffffff1673ffffffffffffffffffffffffffffffffffffffff1673ffffffffffffffffffffffffffffffffffffffff1681526020019081526020016000208190555081600f60008781526020019081526020016000206000820160009054906101000a900473ffffffffffffffffffffffffffffffffffffffff168160000160006101000a81548173ffffffffffffffffffffffffffffffffffffffff021916908373ffffffffffffffffffffffffffffffffffffffff160217905550600182015481600101556002820160009054906101000a900460ff168160020160006101000a81548160ff021916908315150217905550905050600f60006010548152602001908152602001600020600080820160006101000a81549073ffffffffffffffffffffffffffffffffffffffff021916905560018201600090556002820160006101000a81549060ff021916905550505b6010600081548092919060019003919050555061300c868561336b565b613038601360009054906101000a900473ffffffffffffffffffffffffffffffffffffffff168461336b565b5b505050505050565b6000806000809054906101000a900473ffffffffffffffffffffffffffffffffffffffff1673ffffffffffffffffffffffffffffffffffffffff1614806130b1575060006130af6000809054906101000a900473ffffffffffffffffffffffffffffffffffffffff1661393f565b145b156130c2576130c0600061394a565b505b6000809054906101000a900473ffffffffffffffffffffffffffffffffffffffff1673ffffffffffffffffffffffffffffffffffffffff166338cc48316000604051602001526040518163ffffffff167c0100000000000000000000000000000000000000000000000000000000028152600401602060405180830381600087803b151561314f57600080fd5b6102c65a03f1151561316057600080fd5b5050506040518051905073ffffffffffffffffffffffffffffffffffffffff16600160009054906101000a900473ffffffffffffffffffffffffffffffffffffffff1673ffffffffffffffffffffffffffffffffffffffff161415156132a9576000809054906101000a900473ffffffffffffffffffffffffffffffffffffffff1673ffffffffffffffffffffffffffffffffffffffff166338cc48316000604051602001526040518163ffffffff167c0100000000000000000000000000000000000000000000000000000000028152600401602060405180830381600087803b151561324d57600080fd5b6102c65a03f1151561325e57600080fd5b50505060405180519050600160006101000a81548173ffffffffffffffffffffffffffffffffffffffff021916908373ffffffffffffffffffffffffffffffffffffffff1602179055505b600160009054906101000a900473ffffffffffffffffffffffffffffffffffffffff1673ffffffffffffffffffffffffffffffffffffffff1663c281d19e6000604051602001526040518163ffffffff167c0100000000000000000000000000000000000000000000000000000000028152600401602060405180830381600087803b151561333757600080fd5b6102c65a03f1151561334857600080fd5b50505060405180519050905090565b6000613364826000613ddb565b9050919050565b803073ffffffffffffffffffffffffffffffffffffffff163110156133bb577f9bc0f7b8676ac8a3d913fc962a472bc40103acaa27e5477c1eadfbb7d4897a0460405160405180910390a161359c565b8173ffffffffffffffffffffffffffffffffffffffff16600d5482604051600060405180830381858888f19350505050151561359b577f3d14263aec0db87097e504ee7aca5316e879b2cc7f3b29f9c62d40e9bae04cee8282604051808373ffffffffffffffffffffffffffffffffffffffff1673ffffffffffffffffffffffffffffffffffffffff1681526020018281526020019250505060405180910390a1601360009054906101000a900473ffffffffffffffffffffffffffffffffffffffff1673ffffffffffffffffffffffffffffffffffffffff168273ffffffffffffffffffffffffffffffffffffffff1614151561359a57601360009054906101000a900473ffffffffffffffffffffffffffffffffffffffff1673ffffffffffffffffffffffffffffffffffffffff16600d5482604051600060405180830381858888f193505050501515613599577f3d14263aec0db87097e504ee7aca5316e879b2cc7f3b29f9c62d40e9bae04cee601360009054906101000a900473ffffffffffffffffffffffffffffffffffffffff1682604051808373ffffffffffffffffffffffffffffffffffffffff1673ffffffffffffffffffffffffffffffffffffffff1681526020018281526020019250505060405180910390a15b5b5b5b5050565b60008160055460018203101561366857600554600654612710038560200151028115156135c957fe5b0491507f8f25eec129b997ba51175c8f2583cafbfc0c076ef19e2c455869730f969ec44d84600001518484604051808473ffffffffffffffffffffffffffffffffffffffff1673ffffffffffffffffffffffffffffffffffffffff168152602001838152602001828152602001935050505060405180910390a161365184600001518361336b565b83602001518203601a600082825401925050819055505b50505050565b60008160055460018203101515613771577fcb9c7189736051e86837ee4847c751bad47c86cb506933875ff8fabf9eeda008846000015184604051808373ffffffffffffffffffffffffffffffffffffffff1673ffffffffffffffffffffffffffffffffffffffff1681526020018281526020019250505060405180910390a16136fd8460000151600161336b565b612710600a546127100360018660200151030281151561371957fe5b04601960008282540192505081905550612710600a5460018660200151030281151561374157fe5b049150613770601360009054906101000a900473ffffffffffffffffffffffffffffffffffffffff168361336b565b5b50505050565b6000806000806000601b60009054906101000a900460ff16151561387157600193505b6010548411151561384257600f600085815260200190815260200160002060000160009054906101000a900473ffffffffffffffffffffffffffffffffffffffff1692506137e78361101f565b91506137f28361221f565b9050808203600f600086815260200190815260200160002060010160008282540192505081905550600f60008581526020019081526020016000206001015485019450838060010194505061379a565b601960009055601a60009055846011819055506001601b60006101000a81548160ff0219169083151502179055505b5050505050565b80600e60003373ffffffffffffffffffffffffffffffffffffffff1673ffffffffffffffffffffffffffffffffffffffff1681526020019081526020016000208190555033600f600083815260200190815260200160002060000160006101000a81548173ffffffffffffffffffffffffffffffffffffffff021916908373ffffffffffffffffffffffffffffffffffffffff16021790555034600f6000838152602001908152602001600020600101819055503460116000828254019250508190555050565b6000813b9050919050565b60008061396a731d3b2638a7cc9f2cb3d298a3da7a90b67e5506ed61393f565b1115613a0b57731d3b2638a7cc9f2cb3d298a3da7a90b67e5506ed6000806101000a81548173ffffffffffffffffffffffffffffffffffffffff021916908373ffffffffffffffffffffffffffffffffffffffff160217905550613a026040805190810160405280600b81526020017f6574685f6d61696e6e65740000000000000000000000000000000000000000008152506140d5565b60019050613dd6565b6000613a2a73c03a2615d5efaf5f49f60b7bb6583eaec212fdf161393f565b1115613acb5773c03a2615d5efaf5f49f60b7bb6583eaec212fdf16000806101000a81548173ffffffffffffffffffffffffffffffffffffffff021916908373ffffffffffffffffffffffffffffffffffffffff160217905550613ac26040805190810160405280600c81526020017f6574685f726f707374656e3300000000000000000000000000000000000000008152506140d5565b60019050613dd6565b6000613aea73b7a07bcf2ba2f2703b24c0691b5278999c59ac7e61393f565b1115613b8b5773b7a07bcf2ba2f2703b24c0691b5278999c59ac7e6000806101000a81548173ffffffffffffffffffffffffffffffffffffffff021916908373ffffffffffffffffffffffffffffffffffffffff160217905550613b826040805190810160405280600981526020017f6574685f6b6f76616e00000000000000000000000000000000000000000000008152506140d5565b60019050613dd6565b6000613baa73146500cfd35b22e4a392fe0adc06de1a1368ed4861393f565b1115613c4b5773146500cfd35b22e4a392fe0adc06de1a1368ed486000806101000a81548173ffffffffffffffffffffffffffffffffffffffff021916908373ffffffffffffffffffffffffffffffffffffffff160217905550613c426040805190810160405280600b81526020017f6574685f72696e6b6562790000000000000000000000000000000000000000008152506140d5565b60019050613dd6565b6000613c6a736f485c8bf6fc43ea212e93bbf8ce046c7f1cb47561393f565b1115613ccd57736f485c8bf6fc43ea212e93bbf8ce046c7f1cb4756000806101000a81548173ffffffffffffffffffffffffffffffffffffffff021916908373ffffffffffffffffffffffffffffffffffffffff16021790555060019050613dd6565b6000613cec7320e12a1f859b3feae5fb2a0a32c18f5a65555bbf61393f565b1115613d4f577320e12a1f859b3feae5fb2a0a32c18f5a65555bbf6000806101000a81548173ffffffffffffffffffffffffffffffffffffffff021916908373ffffffffffffffffffffffffffffffffffffffff16021790555060019050613dd6565b6000613d6e7351efaf4c8b3c9afbd5ab9f4bbc82784ab6ef8faa61393f565b1115613dd1577351efaf4c8b3c9afbd5ab9f4bbc82784ab6ef8faa6000806101000a81548173ffffffffffffffffffffffffffffffffffffffff021916908373ffffffffffffffffffffffffffffffffffffffff16021790555060019050613dd6565b600090505b919050565b6000613de561411b565b60008060008693506000925060009150600090505b83518110156140b65760307f0100000000000000000000000000000000000000000000000000000000000000028482815181101515613e3557fe5b9060200101517f010000000000000000000000000000000000000000000000000000000000000090047f0100000000000000000000000000000000000000000000000000000000000000027effffffffffffffffffffffffffffffffffffffffffffffffffffffffffffff191610158015613f4d575060397f0100000000000000000000000000000000000000000000000000000000000000028482815181101515613edd57fe5b9060200101517f010000000000000000000000000000000000000000000000000000000000000090047f0100000000000000000000000000000000000000000000000000000000000000027effffffffffffffffffffffffffffffffffffffffffffffffffffffffffffff191611155b15613ffe578115613f70576000861415613f66576140b6565b8580600190039650505b600a8302925060308482815181101515613f8657fe5b9060200101517f010000000000000000000000000000000000000000000000000000000000000090047f0100000000000000000000000000000000000000000000000000000000000000027f0100000000000000000000000000000000000000000000000000000000000000900403830192506140a9565b602e7f010000000000000000000000000000000000000000000000000000000000000002848281518110151561403057fe5b9060200101517f010000000000000000000000000000000000000000000000000000000000000090047f0100000000000000000000000000000000000000000000000000000000000000027effffffffffffffffffffffffffffffffffffffffffffffffffffffffffffff191614156140a857600191505b5b8080600101915050613dfa565b60008611156140c85785600a0a830292505b8294505050505092915050565b80600290805190602001906140eb92919061412f565b5050565b8154818355818115116141165781836000526020600020918201910161411591906141af565b5b505050565b602060405190810160405280600081525090565b828054600181600116156101000203166002900490600052602060002090601f016020900481019282601f1061417057805160ff191683800117855561419e565b8280016001018555821561419e579182015b8281111561419d578251825591602001919060010190614182565b5b5090506141ab91906141d4565b5090565b6141d191905b808211156141cd5760008160009055506001016141b5565b5090565b90565b6141f691905b808211156141f25760008160009055506001016141da565b5090565b90565b60008060009054906101000a900473ffffffffffffffffffffffffffffffffffffffff1673ffffffffffffffffffffffffffffffffffffffff161480614268575060006142666000809054906101000a900473ffffffffffffffffffffffffffffffffffffffff1661393f565b145b1561427957614277600061394a565b505b6000809054906101000a900473ffffffffffffffffffffffffffffffffffffffff1673ffffffffffffffffffffffffffffffffffffffff166338cc48316000604051602001526040518163ffffffff167c0100000000000000000000000000000000000000000000000000000000028152600401602060405180830381600087803b151561430657600080fd5b6102c65a03f1151561431757600080fd5b5050506040518051905073ffffffffffffffffffffffffffffffffffffffff16600160009054906101000a900473ffffffffffffffffffffffffffffffffffffffff1673ffffffffffffffffffffffffffffffffffffffff16141515614460576000809054906101000a900473ffffffffffffffffffffffffffffffffffffffff1673ffffffffffffffffffffffffffffffffffffffff166338cc48316000604051602001526040518163ffffffff167c0100000000000000000000000000000000000000000000000000000000028152600401602060405180830381600087803b151561440457600080fd5b6102c65a03f1151561441557600080fd5b50505060405180519050600160006101000a81548173ffffffffffffffffffffffffffffffffffffffff021916908373ffffffffffffffffffffffffffffffffffffffff1602179055505b600160009054906101000a900473ffffffffffffffffffffffffffffffffffffffff1673ffffffffffffffffffffffffffffffffffffffff1663688dcfd7826040518263ffffffff167c010000000000000000000000000000000000000000000000000000000002815260040180827effffffffffffffffffffffffffffffffffffffffffffffffffffffffffffff19167effffffffffffffffffffffffffffffffffffffffffffffffffffffffffffff19168152602001915050600060405180830381600087803b151561453457600080fd5b6102c65a03f1151561454557600080fd5b505050505600424258315043513931333438333977547a31304f57785843615a61476b39327946365445533878412b38494337784e426c4a7135414c3075573372657637496f41704135444d466d43664b47696b6a6e4e624e676c4b4b76776a454e5950423854424a4e397444676463594e7864576e735941524b4d716d6a724a4b596242416977732b55553648724a58555769724f2b644253534a626d6a49672b39766d426a5371384b766569427a53476d75516875372f6853673572537353502f722b4d68522f51354543724f48692b436b502f7164535554412f516843436a647a46752b3774334873374e553334612b6c374a6476446c764438686f4e78794b6f6f4d44594e625541382f65466d50763264353338464e364b4a51702b524b723477345674414d4864656a724c4d3da165627a7a72305820ef296cc00f4ec4893bc773a5e887cfe5cf53ee685897b11491238bc0be796f610029",
  "source": "pragma solidity ^0.4.11;\r\nimport \"./usingOraclize.sol\";\r\n\r\ncontract Dice is usingOraclize {\r\n\r\n    uint public pwin = 5000; //probability of winning (10000 = 100%)\r\n    uint public edge = 200; //edge percentage (10000 = 100%)\r\n    uint public maxWin = 100; //max win (before edge is taken) as percentage of bankroll (10000 = 100%)\r\n    uint public minBet = 1 finney;\r\n    uint public maxInvestors = 5; //maximum number of investors\r\n    uint public houseEdge = 50; //edge percentage (10000 = 100%)\r\n    uint public divestFee = 50; //divest fee percentage (10000 = 100%)\r\n    uint public emergencyWithdrawalRatio = 90; //ratio percentage (100 = 100%)\r\n\r\n    uint safeGas = 25000;\r\n    uint constant ORACLIZE_GAS_LIMIT = 125000;\r\n    uint constant INVALID_BET_MARKER = 99999;\r\n    uint constant EMERGENCY_TIMEOUT = 7 days;\r\n\r\n    struct Investor {\r\n        address investorAddress;\r\n        uint amountInvested;\r\n        bool votedForEmergencyWithdrawal;\r\n    }\r\n\r\n    struct Bet {\r\n        address playerAddress;\r\n        uint amountBetted;\r\n        uint numberRolled;\r\n    }\r\n\r\n    struct WithdrawalProposal {\r\n        address toAddress;\r\n        uint atTime;\r\n    }\r\n\r\n    //Starting at 1\r\n    mapping(address => uint) public investorIDs;\r\n    mapping(uint => Investor) public investors;\r\n    uint public numInvestors = 0;\r\n\r\n    uint public invested = 0;\r\n\r\n    address owner;\r\n    address houseAddress;\r\n    bool public isStopped;\r\n\r\n    WithdrawalProposal public proposedWithdrawal;\r\n\r\n    mapping (bytes32 => Bet) bets;\r\n    bytes32[] betsKeys;\r\n\r\n    uint public amountWagered = 0;\r\n    uint public investorsProfit = 0;\r\n    uint public investorsLoses = 0;\r\n    bool profitDistributed;\r\n\r\n    event BetWon(address playerAddress, uint numberRolled, uint amountWon);\r\n    event BetLost(address playerAddress, uint numberRolled);\r\n    event EmergencyWithdrawalProposed();\r\n    event EmergencyWithdrawalFailed(address withdrawalAddress);\r\n    event EmergencyWithdrawalSucceeded(address withdrawalAddress, uint amountWithdrawn);\r\n    event FailedSend(address receiver, uint amount);\r\n    event ValueIsTooBig();\r\n\r\n    function Dice(\r\n        uint pwinInitial,\r\n        uint edgeInitial,\r\n        uint maxWinInitial,\r\n        uint minBetInitial,\r\n        uint maxInvestorsInitial,\r\n        uint houseEdgeInitial,\r\n        uint divestFeeInitial,\r\n        uint emergencyWithdrawalRatioInitial) {\r\n\r\n        OAR = OraclizeAddrResolverI(0x6f485C8BF6fc43eA212E93BBF8ce046C7f1cb475);\r\n        oraclize_setProof(proofType_TLSNotary | proofStorage_IPFS);\r\n\r\n        pwin = pwinInitial;\r\n        edge = edgeInitial;\r\n        maxWin = maxWinInitial;\r\n        minBet = minBetInitial;\r\n        maxInvestors = maxInvestorsInitial;\r\n        houseEdge = houseEdgeInitial;\r\n        divestFee = divestFeeInitial;\r\n        emergencyWithdrawalRatio = emergencyWithdrawalRatioInitial;\r\n        owner = msg.sender;\r\n        houseAddress = msg.sender;\r\n    }\r\n\r\n    //SECTION I: MODIFIERS AND HELPER FUNCTIONS\r\n\r\n    //MODIFIERS\r\n\r\n    modifier onlyIfNotStopped {\r\n        if (isStopped) throw;\r\n        _;\r\n    }\r\n\r\n    modifier onlyIfStopped {\r\n        if (!isStopped) throw;\r\n        _;\r\n    }\r\n\r\n    modifier onlyInvestors {\r\n        if (investorIDs[msg.sender] == 0) throw;\r\n        _;\r\n    }\r\n\r\n    modifier onlyNotInvestors {\r\n        if (investorIDs[msg.sender] != 0) throw;\r\n        _;\r\n    }\r\n\r\n    modifier onlyOwner {\r\n        if (owner != msg.sender) throw;\r\n        _;\r\n    }\r\n\r\n    modifier onlyOraclize {\r\n        if (msg.sender != oraclize_cbAddress()) throw;\r\n        _;\r\n    }\r\n\r\n    modifier onlyMoreThanMinInvestment {\r\n        if (msg.value <= getMinInvestment()) throw;\r\n        _;\r\n    }\r\n\r\n    modifier onlyMoreThanZero {\r\n        if (msg.value == 0) throw;\r\n        _;\r\n    }\r\n\r\n    modifier onlyIfBetSizeIsStillCorrect(bytes32 myid) {\r\n        Bet thisBet = bets[myid];\r\n        if ((((thisBet.amountBetted * ((10000 - edge) - pwin)) / pwin ) <= (maxWin * getBankroll()) / 10000)) {\r\n             _;\r\n        }\r\n        else {\r\n            bets[myid].numberRolled = INVALID_BET_MARKER;\r\n            safeSend(thisBet.playerAddress, thisBet.amountBetted);\r\n            return;\r\n        }\r\n    }\r\n\r\n    modifier onlyIfValidRoll(bytes32 myid, string result) {\r\n        Bet thisBet = bets[myid];\r\n        uint numberRolled = parseInt(result);\r\n        if ((numberRolled < 1 || numberRolled > 10000) && thisBet.numberRolled == 0) {\r\n            bets[myid].numberRolled = INVALID_BET_MARKER;\r\n            safeSend(thisBet.playerAddress, thisBet.amountBetted);\r\n            return;\r\n        }\r\n        _;\r\n    }\r\n\r\n    modifier onlyIfInvestorBalanceIsPositive(address currentInvestor) {\r\n        if (getBalance(currentInvestor) >= 0) {\r\n            _;\r\n        }\r\n    }\r\n\r\n    modifier onlyWinningBets(uint numberRolled) {\r\n        if (numberRolled - 1 < pwin) {\r\n            _;\r\n        }\r\n    }\r\n\r\n    modifier onlyLosingBets(uint numberRolled) {\r\n        if (numberRolled - 1 >= pwin) {\r\n            _;\r\n        }\r\n    }\r\n\r\n    modifier onlyAfterProposed {\r\n        if (proposedWithdrawal.toAddress == 0) throw;\r\n        _;\r\n    }\r\n\r\n    modifier rejectValue {\r\n        if (msg.value != 0) throw;\r\n        _;\r\n    }\r\n\r\n    modifier onlyIfProfitNotDistributed {\r\n        if (!profitDistributed) {\r\n            _;\r\n        }\r\n    }\r\n\r\n    modifier onlyIfValidGas(uint newGasLimit) {\r\n        if (newGasLimit < 25000) throw;\r\n        _;\r\n    }\r\n\r\n    modifier onlyIfNotProcessed(bytes32 myid) {\r\n        Bet thisBet = bets[myid];\r\n        if (thisBet.numberRolled > 0) throw;\r\n        _;\r\n    }\r\n\r\n    modifier onlyIfEmergencyTimeOutHasPassed {\r\n        if (proposedWithdrawal.atTime + EMERGENCY_TIMEOUT > now) throw;\r\n        _;\r\n    }\r\n\r\n\r\n    //CONSTANT HELPER FUNCTIONS\r\n\r\n    function getBankroll() constant returns(uint) {\r\n        return invested + investorsProfit - investorsLoses;\r\n    }\r\n\r\n    function getMinInvestment() constant returns(uint) {\r\n        if (numInvestors == maxInvestors) {\r\n            uint investorID = searchSmallestInvestor();\r\n            return getBalance(investors[investorID].investorAddress);\r\n        }\r\n        else {\r\n            return 0;\r\n        }\r\n    }\r\n\r\n    function getStatus() constant returns(uint, uint, uint, uint, uint, uint, uint, uint, uint) {\r\n\r\n        uint bankroll = getBankroll();\r\n\r\n        uint minInvestment = getMinInvestment();\r\n\r\n        return (bankroll, pwin, edge, maxWin, minBet, amountWagered, (investorsProfit - investorsLoses), minInvestment, betsKeys.length);\r\n    }\r\n\r\n    function getBet(uint id) constant returns(address, uint, uint) {\r\n        if (id < betsKeys.length) {\r\n            bytes32 betKey = betsKeys[id];\r\n            return (bets[betKey].playerAddress, bets[betKey].amountBetted, bets[betKey].numberRolled);\r\n        }\r\n    }\r\n\r\n    function numBets() constant returns(uint) {\r\n        return betsKeys.length;\r\n    }\r\n\r\n    function getMinBetAmount() constant returns(uint) {\r\n        uint oraclizeFee = OraclizeI(OAR.getAddress()).getPrice(\"URL\", ORACLIZE_GAS_LIMIT + safeGas);\r\n        return oraclizeFee + minBet;\r\n    }\r\n\r\n    function getMaxBetAmount() constant returns(uint) {\r\n        uint oraclizeFee = OraclizeI(OAR.getAddress()).getPrice(\"URL\", ORACLIZE_GAS_LIMIT + safeGas);\r\n        uint betValue =  (maxWin * getBankroll()) * pwin / (10000 * (10000 - edge - pwin));\r\n        return betValue + oraclizeFee;\r\n    }\r\n\r\n    function getLosesShare(address currentInvestor) constant returns (uint) {\r\n        return investors[investorIDs[currentInvestor]].amountInvested * (investorsLoses) / invested;\r\n    }\r\n\r\n    function getProfitShare(address currentInvestor) constant returns (uint) {\r\n        return investors[investorIDs[currentInvestor]].amountInvested * (investorsProfit) / invested;\r\n    }\r\n\r\n    function getBalance(address currentInvestor) constant returns (uint) {\r\n        return investors[investorIDs[currentInvestor]].amountInvested + getProfitShare(currentInvestor) - getLosesShare(currentInvestor);\r\n    }\r\n\r\n    function searchSmallestInvestor() constant returns(uint) {\r\n        uint investorID = 1;\r\n        for (uint i = 1; i <= numInvestors; i++) {\r\n            if (getBalance(investors[i].investorAddress) < getBalance(investors[investorID].investorAddress)) {\r\n                investorID = i;\r\n            }\r\n        }\r\n\r\n        return investorID;\r\n    }\r\n\r\n    // PRIVATE HELPERS FUNCTION\r\n\r\n    function safeSend(address addr, uint value) private {\r\n        if (this.balance < value) {\r\n            ValueIsTooBig();\r\n            return;\r\n        }\r\n\r\n        if (!(addr.call.gas(safeGas).value(value)())) {\r\n            FailedSend(addr, value);\r\n            if (addr != houseAddress) {\r\n                //Forward to house address all change\r\n                if (!(houseAddress.call.gas(safeGas).value(value)())) FailedSend(houseAddress, value);\r\n            }\r\n        }\r\n    }\r\n\r\n    function addInvestorAtID(uint id) private {\r\n        investorIDs[msg.sender] = id;\r\n        investors[id].investorAddress = msg.sender;\r\n        investors[id].amountInvested = msg.value;\r\n        invested += msg.value;\r\n    }\r\n\r\n    function profitDistribution() private onlyIfProfitNotDistributed {\r\n        uint copyInvested;\r\n\r\n        for (uint i = 1; i <= numInvestors; i++) {\r\n            address currentInvestor = investors[i].investorAddress;\r\n            uint profitOfInvestor = getProfitShare(currentInvestor);\r\n            uint losesOfInvestor = getLosesShare(currentInvestor);\r\n            investors[i].amountInvested += profitOfInvestor - losesOfInvestor;\r\n            copyInvested += investors[i].amountInvested;\r\n        }\r\n\r\n        delete investorsProfit;\r\n        delete investorsLoses;\r\n        invested = copyInvested;\r\n\r\n        profitDistributed = true;\r\n    }\r\n\r\n    // SECTION II: BET & BET PROCESSING\r\n\r\n    function() {\r\n        bet();\r\n    }\r\n\r\n    function bet() onlyIfNotStopped onlyMoreThanZero {\r\n        uint oraclizeFee = OraclizeI(OAR.getAddress()).getPrice(\"URL\", ORACLIZE_GAS_LIMIT + safeGas);\r\n        uint betValue = msg.value - oraclizeFee;\r\n        if ((((betValue * ((10000 - edge) - pwin)) / pwin ) <= (maxWin * getBankroll()) / 10000) && (betValue >= minBet)) {\r\n            // encrypted arg: '\\n{\"jsonrpc\":2.0,\"method\":\"generateSignedIntegers\",\"params\":{\"apiKey\":\"YOUR_API_KEY\",\"n\":1,\"min\":1,\"max\":10000},\"id\":1}'\r\n            bytes32 myid = oraclize_query(\"URL\", \"json(https://api.random.org/json-rpc/1/invoke).result.random.data.0\",\"BBX1PCQ9134839wTz10OWxXCaZaGk92yF6TES8xA+8IC7xNBlJq5AL0uW3rev7IoApA5DMFmCfKGikjnNbNglKKvwjENYPB8TBJN9tDgdcYNxdWnsYARKMqmjrJKYbBAiws+UU6HrJXUWirO+dBSSJbmjIg+9vmBjSq8KveiBzSGmuQhu7/hSg5rSsSP/r+MhR/Q5ECrOHi+CkP/qdSUTA/QhCCjdzFu+7t3Hs7NU34a+l7JdvDlvD8hoNxyKooMDYNbUA8/eFmPv2d538FN6KJQp+RKr4w4VtAMHdejrLM=\", ORACLIZE_GAS_LIMIT + safeGas);\r\n            bets[myid] = Bet(msg.sender, betValue, 0);\r\n            betsKeys.push(myid);\r\n        } else {\r\n            throw;\r\n        }\r\n    }\r\n\r\n    function __callback (bytes32 myid, string result, bytes proof)\r\n        onlyOraclize\r\n        onlyIfNotProcessed(myid)\r\n        onlyIfValidRoll(myid, result)\r\n        onlyIfBetSizeIsStillCorrect(myid)  {\r\n\r\n        Bet thisBet = bets[myid];\r\n        uint numberRolled = parseInt(result);\r\n        bets[myid].numberRolled = numberRolled;\r\n        isWinningBet(thisBet, numberRolled);\r\n        isLosingBet(thisBet, numberRolled);\r\n        amountWagered += thisBet.amountBetted;\r\n        delete profitDistributed;\r\n    }\r\n\r\n    function isWinningBet(Bet thisBet, uint numberRolled) private onlyWinningBets(numberRolled) {\r\n        uint winAmount = (thisBet.amountBetted * (10000 - edge)) / pwin;\r\n        BetWon(thisBet.playerAddress, numberRolled, winAmount);\r\n        safeSend(thisBet.playerAddress, winAmount);\r\n        investorsLoses += (winAmount - thisBet.amountBetted);\r\n    }\r\n\r\n    function isLosingBet(Bet thisBet, uint numberRolled) private onlyLosingBets(numberRolled) {\r\n        BetLost(thisBet.playerAddress, numberRolled);\r\n        safeSend(thisBet.playerAddress, 1);\r\n        investorsProfit += (thisBet.amountBetted - 1)*(10000 - houseEdge)/10000;\r\n        uint houseProfit = (thisBet.amountBetted - 1)*(houseEdge)/10000;\r\n        safeSend(houseAddress, houseProfit);\r\n    }\r\n\r\n    //SECTION III: INVEST & DIVEST\r\n\r\n    function increaseInvestment() onlyIfNotStopped onlyMoreThanZero onlyInvestors  {\r\n        profitDistribution();\r\n        investors[investorIDs[msg.sender]].amountInvested += msg.value;\r\n        invested += msg.value;\r\n    }\r\n\r\n    function newInvestor()\r\n        onlyIfNotStopped\r\n        onlyMoreThanZero\r\n        onlyNotInvestors\r\n        onlyMoreThanMinInvestment \r\n        payable {\r\n\r\n        profitDistribution();\r\n\r\n        if (numInvestors == maxInvestors) {\r\n            uint smallestInvestorID = searchSmallestInvestor();\r\n            divest(investors[smallestInvestorID].investorAddress);\r\n        }\r\n\r\n        numInvestors++;\r\n        addInvestorAtID(numInvestors);\r\n    }\r\n\r\n    function divest() onlyInvestors rejectValue {\r\n        divest(msg.sender);\r\n    }\r\n\r\n\r\n    function divest(address currentInvestor)\r\n        private\r\n        onlyIfInvestorBalanceIsPositive(currentInvestor) {\r\n\r\n        profitDistribution();\r\n        uint currentID = investorIDs[currentInvestor];\r\n        uint amountToReturn = getBalance(currentInvestor);\r\n        invested -= investors[currentID].amountInvested;\r\n        uint divestFeeAmount =  (amountToReturn*divestFee)/10000;\r\n        amountToReturn -= divestFeeAmount;\r\n\r\n        delete investors[currentID];\r\n        delete investorIDs[currentInvestor];\r\n        //Reorder investors\r\n\r\n        if (currentID != numInvestors) {\r\n            // Get last investor\r\n            Investor lastInvestor = investors[numInvestors];\r\n            //Set last investor ID to investorID of divesting account\r\n            investorIDs[lastInvestor.investorAddress] = currentID;\r\n            //Copy investor at the new position in the mapping\r\n            investors[currentID] = lastInvestor;\r\n            //Delete old position in the mappping\r\n            delete investors[numInvestors];\r\n        }\r\n\r\n        numInvestors--;\r\n        safeSend(currentInvestor, amountToReturn);\r\n        safeSend(houseAddress, divestFeeAmount);\r\n    }\r\n\r\n    function forceDivestOfAllInvestors() onlyOwner rejectValue {\r\n        uint copyNumInvestors = numInvestors;\r\n        for (uint i = 1; i <= copyNumInvestors; i++) {\r\n            divest(investors[1].investorAddress);\r\n        }\r\n    }\r\n\r\n    /*\r\n    The owner can use this function to force the exit of an investor from the\r\n    contract during an emergency withdrawal in the following situations:\r\n        - Unresponsive investor\r\n        - Investor demanding to be paid in other to vote, the facto-blackmailing\r\n        other investors\r\n    */\r\n    function forceDivestOfOneInvestor(address currentInvestor)\r\n        onlyOwner\r\n        onlyIfStopped\r\n        rejectValue {\r\n\r\n        divest(currentInvestor);\r\n        //Resets emergency withdrawal proposal. Investors must vote again\r\n        delete proposedWithdrawal;\r\n    }\r\n\r\n    //SECTION IV: CONTRACT MANAGEMENT\r\n\r\n    function stopContract() onlyOwner rejectValue {\r\n        isStopped = true;\r\n    }\r\n\r\n    function resumeContract() onlyOwner rejectValue {\r\n        isStopped = false;\r\n    }\r\n\r\n    function changeHouseAddress(address newHouse) onlyOwner rejectValue {\r\n        houseAddress = newHouse;\r\n    }\r\n\r\n    function changeOwnerAddress(address newOwner) onlyOwner rejectValue {\r\n        owner = newOwner;\r\n    }\r\n\r\n    function changeGasLimitOfSafeSend(uint newGasLimit)\r\n        onlyOwner\r\n        onlyIfValidGas(newGasLimit)\r\n        rejectValue {\r\n        safeGas = newGasLimit;\r\n    }\r\n\r\n    //SECTION V: EMERGENCY WITHDRAWAL\r\n\r\n    function voteEmergencyWithdrawal(bool vote)\r\n        onlyInvestors\r\n        onlyAfterProposed\r\n        onlyIfStopped\r\n        rejectValue {\r\n        investors[investorIDs[msg.sender]].votedForEmergencyWithdrawal = vote;\r\n    }\r\n\r\n    function proposeEmergencyWithdrawal(address withdrawalAddress)\r\n        onlyIfStopped\r\n        onlyOwner\r\n        rejectValue {\r\n\r\n        //Resets previous votes\r\n        for (uint i = 1; i <= numInvestors; i++) {\r\n            delete investors[i].votedForEmergencyWithdrawal;\r\n        }\r\n\r\n        proposedWithdrawal = WithdrawalProposal(withdrawalAddress, now);\r\n        EmergencyWithdrawalProposed();\r\n    }\r\n\r\n    function executeEmergencyWithdrawal()\r\n        onlyOwner\r\n        onlyAfterProposed\r\n        onlyIfStopped\r\n        onlyIfEmergencyTimeOutHasPassed\r\n        rejectValue {\r\n\r\n        uint numOfVotesInFavour;\r\n        uint amountToWithdrawal = this.balance;\r\n\r\n        for (uint i = 1; i <= numInvestors; i++) {\r\n            if (investors[i].votedForEmergencyWithdrawal == true) {\r\n                numOfVotesInFavour++;\r\n                delete investors[i].votedForEmergencyWithdrawal;\r\n            }\r\n        }\r\n\r\n        if (numOfVotesInFavour >= emergencyWithdrawalRatio * numInvestors / 100) {\r\n            if (!proposedWithdrawal.toAddress.send(this.balance)) {\r\n                EmergencyWithdrawalFailed(proposedWithdrawal.toAddress);\r\n            }\r\n            else {\r\n                EmergencyWithdrawalSucceeded(proposedWithdrawal.toAddress, amountToWithdrawal);\r\n            }\r\n        }\r\n        else {\r\n            throw;\r\n        }\r\n    }\r\n\r\n}",
  "sourcePath": "C:\\Code\\vDice\\contracts\\Dice.sol",
  "compiler": {
    "name": "solc",
    "version": "0.4.18+commit.9cf6e910.Emscripten.clang"
  },
  "schemaVersion": "1.0.1",
  "updatedAt": "2018-02-02T16:47:30.709Z"
}